{
  "contractName": "BSCBridge",
  "abi": [
    {
      "inputs": [
        {
          "internalType": "address",
          "name": "_token",
          "type": "address"
        }
      ],
      "stateMutability": "nonpayable",
      "type": "constructor"
    },
    {
      "anonymous": false,
      "inputs": [
        {
          "indexed": true,
          "internalType": "address",
          "name": "from",
          "type": "address"
        },
        {
          "indexed": false,
          "internalType": "address",
          "name": "to",
          "type": "address"
        },
        {
          "indexed": true,
          "internalType": "uint256",
          "name": "amount",
          "type": "uint256"
        },
        {
          "indexed": false,
          "internalType": "uint256",
          "name": "date",
          "type": "uint256"
        },
        {
          "indexed": false,
          "internalType": "uint256",
          "name": "nounce",
          "type": "uint256"
        },
        {
          "indexed": false,
          "internalType": "bytes",
          "name": "signature",
          "type": "bytes"
        },
        {
          "indexed": true,
          "internalType": "enum Bridge.Type",
          "name": "step",
          "type": "uint8"
        }
      ],
      "name": "Transfer",
      "type": "event"
    },
    {
      "inputs": [
        {
          "internalType": "address",
          "name": "to",
          "type": "address"
        },
        {
          "internalType": "uint256",
          "name": "amount",
          "type": "uint256"
        },
        {
          "internalType": "bytes",
          "name": "signature",
          "type": "bytes"
        }
      ],
      "name": "burn",
      "outputs": [],
      "stateMutability": "nonpayable",
      "type": "function"
    },
    {
      "inputs": [
        {
          "internalType": "address",
          "name": "",
          "type": "address"
        },
        {
          "internalType": "uint256",
          "name": "",
          "type": "uint256"
        }
      ],
      "name": "hasProcessed",
      "outputs": [
        {
          "internalType": "bool",
          "name": "",
          "type": "bool"
        }
      ],
      "stateMutability": "view",
      "type": "function",
      "constant": true
    },
    {
      "inputs": [
        {
          "internalType": "address",
          "name": "from",
          "type": "address"
        },
        {
          "internalType": "address",
          "name": "to",
          "type": "address"
        },
        {
          "internalType": "uint256",
          "name": "amount",
          "type": "uint256"
        },
        {
          "internalType": "uint256",
          "name": "nonce",
          "type": "uint256"
        },
        {
          "internalType": "bytes",
          "name": "signature",
          "type": "bytes"
        }
      ],
      "name": "mint",
      "outputs": [],
      "stateMutability": "nonpayable",
      "type": "function"
    },
    {
      "inputs": [],
      "name": "token",
      "outputs": [
        {
          "internalType": "contract Pandaa",
          "name": "",
          "type": "address"
        }
      ],
      "stateMutability": "view",
      "type": "function",
      "constant": true
    },
    {
      "inputs": [
        {
          "internalType": "address",
          "name": "",
          "type": "address"
        }
      ],
      "name": "transferCount",
      "outputs": [
        {
          "internalType": "uint256",
          "name": "",
          "type": "uint256"
        }
      ],
      "stateMutability": "view",
      "type": "function",
      "constant": true
    }
  ],
  "bytecode": "0x60806040523480156200001157600080fd5b5060405162001346380380620013468339818101604052810190620000379190620000ea565b80806000806101000a81548173ffffffffffffffffffffffffffffffffffffffff021916908373ffffffffffffffffffffffffffffffffffffffff16021790555050506200011c565b600080fd5b600073ffffffffffffffffffffffffffffffffffffffff82169050919050565b6000620000b28262000085565b9050919050565b620000c481620000a5565b8114620000d057600080fd5b50565b600081519050620000e481620000b9565b92915050565b60006020828403121562000103576200010262000080565b5b60006200011384828501620000d3565b91505092915050565b61121a806200012c6000396000f3fe608060405234801561001057600080fd5b50600436106100575760003560e01c80632dc74c201461005c5780633dc876ca1461008c57806344d17187146100bc57806352555702146100d8578063fc0c546a146100f4575b600080fd5b6100766004803603810190610071919061096d565b610112565b60405161008391906109b3565b60405180910390f35b6100a660048036038101906100a191906109fa565b61012a565b6040516100b39190610a55565b60405180910390f35b6100d660048036038101906100d19190610ad5565b610159565b005b6100f260048036038101906100ed9190610b49565b6102ec565b005b6100fc6105f1565b6040516101099190610c42565b60405180910390f35b60016020528060005260406000206000915090505481565b60026020528160005260406000206020528060005260406000206000915091509054906101000a900460ff1681565b60018060003373ffffffffffffffffffffffffffffffffffffffff1673ffffffffffffffffffffffffffffffffffffffff16815260200190815260200160002060008282546101a89190610c8c565b9250508190555060008054906101000a900473ffffffffffffffffffffffffffffffffffffffff1673ffffffffffffffffffffffffffffffffffffffff166374f4f54733856040518363ffffffff1660e01b815260040161020a929190610ccf565b600060405180830381600087803b15801561022457600080fd5b505af1158015610238573d6000803e3d6000fd5b50505050600060018111156102505761024f610cf8565b5b833373ffffffffffffffffffffffffffffffffffffffff167fce5a9b86edd3b998c3948a7934c7ecf7dba73c4c5bcf56cf576bca4aa2beeb308742600160003373ffffffffffffffffffffffffffffffffffffffff1673ffffffffffffffffffffffffffffffffffffffff1681526020019081526020016000205488886040516102de959493929190610d85565b60405180910390a450505050565b600085858560405160200161030393929190610e3c565b604051602081830303815290604052805190602001209050600061032682610615565b905060006103788286868080601f016020809104026020016040519081016040528093929190818152602001838380828437600081840152601f19601f82011690508083019250505050505050610645565b90508873ffffffffffffffffffffffffffffffffffffffff168173ffffffffffffffffffffffffffffffffffffffff16146103e8576040517f08c379a00000000000000000000000000000000000000000000000000000000081526004016103df90610ed6565b60405180910390fd5b600260008a73ffffffffffffffffffffffffffffffffffffffff1673ffffffffffffffffffffffffffffffffffffffff168152602001908152602001600020600087815260200190815260200160002060009054906101000a900460ff1615610486576040517f08c379a000000000000000000000000000000000000000000000000000000000815260040161047d90610f42565b60405180910390fd5b6001600260008b73ffffffffffffffffffffffffffffffffffffffff1673ffffffffffffffffffffffffffffffffffffffff168152602001908152602001600020600088815260200190815260200160002060006101000a81548160ff02191690831515021790555060008054906101000a900473ffffffffffffffffffffffffffffffffffffffff1673ffffffffffffffffffffffffffffffffffffffff16638c2a993e89896040518363ffffffff1660e01b815260040161054a929190610ccf565b600060405180830381600087803b15801561056457600080fd5b505af1158015610578573d6000803e3d6000fd5b5050505060018081111561058f5761058e610cf8565b5b878a73ffffffffffffffffffffffffffffffffffffffff167fce5a9b86edd3b998c3948a7934c7ecf7dba73c4c5bcf56cf576bca4aa2beeb308b428b8b8b6040516105de959493929190610d85565b60405180910390a4505050505050505050565b60008054906101000a900473ffffffffffffffffffffffffffffffffffffffff1681565b6000816040516020016106289190610fe4565b604051602081830303815290604052805190602001209050919050565b6000806000610654858561066c565b91509150610661816106bd565b819250505092915050565b60008060418351036106ad5760008060006020860151925060408601519150606086015160001a90506106a187828585610823565b945094505050506106b6565b60006002915091505b9250929050565b600060048111156106d1576106d0610cf8565b5b8160048111156106e4576106e3610cf8565b5b031561082057600160048111156106fe576106fd610cf8565b5b81600481111561071157610710610cf8565b5b03610751576040517f08c379a000000000000000000000000000000000000000000000000000000000815260040161074890611056565b60405180910390fd5b6002600481111561076557610764610cf8565b5b81600481111561077857610777610cf8565b5b036107b8576040517f08c379a00000000000000000000000000000000000000000000000000000000081526004016107af906110c2565b60405180910390fd5b600360048111156107cc576107cb610cf8565b5b8160048111156107df576107de610cf8565b5b0361081f576040517f08c379a000000000000000000000000000000000000000000000000000000000815260040161081690611154565b60405180910390fd5b5b50565b6000807f7fffffffffffffffffffffffffffffff5d576e7357a4501ddfe92f46681b20a08360001c111561085e5760006003915091506108fc565b600060018787878760405160008152602001604052604051610883949392919061119f565b6020604051602081039080840390855afa1580156108a5573d6000803e3d6000fd5b505050602060405103519050600073ffffffffffffffffffffffffffffffffffffffff168173ffffffffffffffffffffffffffffffffffffffff16036108f3576000600192509250506108fc565b80600092509250505b94509492505050565b600080fd5b600080fd5b600073ffffffffffffffffffffffffffffffffffffffff82169050919050565b600061093a8261090f565b9050919050565b61094a8161092f565b811461095557600080fd5b50565b60008135905061096781610941565b92915050565b60006020828403121561098357610982610905565b5b600061099184828501610958565b91505092915050565b6000819050919050565b6109ad8161099a565b82525050565b60006020820190506109c860008301846109a4565b92915050565b6109d78161099a565b81146109e257600080fd5b50565b6000813590506109f4816109ce565b92915050565b60008060408385031215610a1157610a10610905565b5b6000610a1f85828601610958565b9250506020610a30858286016109e5565b9150509250929050565b60008115159050919050565b610a4f81610a3a565b82525050565b6000602082019050610a6a6000830184610a46565b92915050565b600080fd5b600080fd5b600080fd5b60008083601f840112610a9557610a94610a70565b5b8235905067ffffffffffffffff811115610ab257610ab1610a75565b5b602083019150836001820283011115610ace57610acd610a7a565b5b9250929050565b60008060008060608587031215610aef57610aee610905565b5b6000610afd87828801610958565b9450506020610b0e878288016109e5565b935050604085013567ffffffffffffffff811115610b2f57610b2e61090a565b5b610b3b87828801610a7f565b925092505092959194509250565b60008060008060008060a08789031215610b6657610b65610905565b5b6000610b7489828a01610958565b9650506020610b8589828a01610958565b9550506040610b9689828a016109e5565b9450506060610ba789828a016109e5565b935050608087013567ffffffffffffffff811115610bc857610bc761090a565b5b610bd489828a01610a7f565b92509250509295509295509295565b6000819050919050565b6000610c08610c03610bfe8461090f565b610be3565b61090f565b9050919050565b6000610c1a82610bed565b9050919050565b6000610c2c82610c0f565b9050919050565b610c3c81610c21565b82525050565b6000602082019050610c576000830184610c33565b92915050565b7f4e487b7100000000000000000000000000000000000000000000000000000000600052601160045260246000fd5b6000610c978261099a565b9150610ca28361099a565b9250828201905080821115610cba57610cb9610c5d565b5b92915050565b610cc98161092f565b82525050565b6000604082019050610ce46000830185610cc0565b610cf160208301846109a4565b9392505050565b7f4e487b7100000000000000000000000000000000000000000000000000000000600052602160045260246000fd5b600082825260208201905092915050565b82818337600083830152505050565b6000601f19601f8301169050919050565b6000610d648385610d27565b9350610d71838584610d38565b610d7a83610d47565b840190509392505050565b6000608082019050610d9a6000830188610cc0565b610da760208301876109a4565b610db460408301866109a4565b8181036060830152610dc7818486610d58565b90509695505050505050565b60008160601b9050919050565b6000610deb82610dd3565b9050919050565b6000610dfd82610de0565b9050919050565b610e15610e108261092f565b610df2565b82525050565b6000819050919050565b610e36610e318261099a565b610e1b565b82525050565b6000610e488286610e04565b601482019150610e588285610e25565b602082019150610e688284610e25565b602082019150819050949350505050565b600082825260208201905092915050565b7f496e636f7272656374205369676e617475726500000000000000000000000000600082015250565b6000610ec0601383610e79565b9150610ecb82610e8a565b602082019050919050565b60006020820190508181036000830152610eef81610eb3565b9050919050565b7f416c72656164792070726f636573736564207265717565737400000000000000600082015250565b6000610f2c601983610e79565b9150610f3782610ef6565b602082019050919050565b60006020820190508181036000830152610f5b81610f1f565b9050919050565b600081905092915050565b7f19457468657265756d205369676e6564204d6573736167653a0a333200000000600082015250565b6000610fa3601c83610f62565b9150610fae82610f6d565b601c82019050919050565b6000819050919050565b6000819050919050565b610fde610fd982610fb9565b610fc3565b82525050565b6000610fef82610f96565b9150610ffb8284610fcd565b60208201915081905092915050565b7f45434453413a20696e76616c6964207369676e61747572650000000000000000600082015250565b6000611040601883610e79565b915061104b8261100a565b602082019050919050565b6000602082019050818103600083015261106f81611033565b9050919050565b7f45434453413a20696e76616c6964207369676e6174757265206c656e67746800600082015250565b60006110ac601f83610e79565b91506110b782611076565b602082019050919050565b600060208201905081810360008301526110db8161109f565b9050919050565b7f45434453413a20696e76616c6964207369676e6174757265202773272076616c60008201527f7565000000000000000000000000000000000000000000000000000000000000602082015250565b600061113e602283610e79565b9150611149826110e2565b604082019050919050565b6000602082019050818103600083015261116d81611131565b9050919050565b61117d81610fb9565b82525050565b600060ff82169050919050565b61119981611183565b82525050565b60006080820190506111b46000830187611174565b6111c16020830186611190565b6111ce6040830185611174565b6111db6060830184611174565b9594505050505056fea2646970667358221220d8959fc95c68fc1d8908eeeaa4ff68596cee91b6c1ac5bea036e8c51d844ebdd64736f6c63430008110033",
  "immutableReferences": {},
  "source": "//SPDX-License-Identifier:MIT\npragma solidity ^0.8.0;\n\nimport \"./Bridge.sol\";\n\ncontract BSCBridge is Bridge {\n    constructor(address _token) Bridge(_token) {}\n}\n",
  "sourcePath": "/Users/bowenzhang/token-bridge/contracts/BSCBridge.sol",
  "compiler": {
    "name": "solc",
    "version": "0.8.17+commit.8df45f5f.Emscripten.clang"
  },
  "schemaVersion": "3.4.11",
  "updatedAt": "2023-01-30T20:33:15.978Z",
  "networkType": "ethereum",
  "devdoc": {
    "kind": "dev",
    "methods": {},
    "version": 1
  },
  "userdoc": {
    "kind": "user",
    "methods": {},
    "version": 1
  }
}